{
  "address": "0xa05884bfFBa889fc4A0b5c5350Df0c3A22534353",
  "abi": [
    {
      "inputs": [
        {
          "internalType": "address",
          "name": "_router",
          "type": "address"
        },
        {
          "internalType": "address",
          "name": "_link",
          "type": "address"
        },
        {
          "internalType": "address",
          "name": "nftAddress",
          "type": "address"
        }
      ],
      "stateMutability": "nonpayable",
      "type": "constructor"
    },
    {
      "inputs": [
        {
          "internalType": "address",
          "name": "target",
          "type": "address"
        }
      ],
      "name": "AddressEmptyCode",
      "type": "error"
    },
    {
      "inputs": [
        {
          "internalType": "address",
          "name": "account",
          "type": "address"
        }
      ],
      "name": "AddressInsufficientBalance",
      "type": "error"
    },
    {
      "inputs": [],
      "name": "FailedInnerCall",
      "type": "error"
    },
    {
      "inputs": [
        {
          "internalType": "address",
          "name": "owner",
          "type": "address"
        },
        {
          "internalType": "address",
          "name": "target",
          "type": "address"
        },
        {
          "internalType": "uint256",
          "name": "value",
          "type": "uint256"
        }
      ],
      "name": "FailedToWithdrawEth",
      "type": "error"
    },
    {
      "inputs": [],
      "name": "InvalidReceiverAddress",
      "type": "error"
    },
    {
      "inputs": [
        {
          "internalType": "address",
          "name": "router",
          "type": "address"
        }
      ],
      "name": "InvalidRouter",
      "type": "error"
    },
    {
      "inputs": [
        {
          "internalType": "uint256",
          "name": "currentBalance",
          "type": "uint256"
        },
        {
          "internalType": "uint256",
          "name": "calculatedFees",
          "type": "uint256"
        }
      ],
      "name": "NotEnoughBalance",
      "type": "error"
    },
    {
      "inputs": [],
      "name": "NothingToWithdraw",
      "type": "error"
    },
    {
      "inputs": [
        {
          "internalType": "address",
          "name": "token",
          "type": "address"
        }
      ],
      "name": "SafeERC20FailedOperation",
      "type": "error"
    },
    {
      "anonymous": false,
      "inputs": [
        {
          "indexed": true,
          "internalType": "bytes32",
          "name": "messageId",
          "type": "bytes32"
        },
        {
          "indexed": true,
          "internalType": "uint64",
          "name": "destinationChainSelector",
          "type": "uint64"
        },
        {
          "indexed": false,
          "internalType": "address",
          "name": "receiver",
          "type": "address"
        },
        {
          "indexed": false,
          "internalType": "bytes",
          "name": "text",
          "type": "bytes"
        },
        {
          "indexed": false,
          "internalType": "address",
          "name": "feeToken",
          "type": "address"
        },
        {
          "indexed": false,
          "internalType": "uint256",
          "name": "fees",
          "type": "uint256"
        }
      ],
      "name": "MessageSent",
      "type": "event"
    },
    {
      "anonymous": false,
      "inputs": [
        {
          "indexed": true,
          "internalType": "address",
          "name": "from",
          "type": "address"
        },
        {
          "indexed": true,
          "internalType": "address",
          "name": "to",
          "type": "address"
        }
      ],
      "name": "OwnershipTransferRequested",
      "type": "event"
    },
    {
      "anonymous": false,
      "inputs": [
        {
          "indexed": true,
          "internalType": "address",
          "name": "from",
          "type": "address"
        },
        {
          "indexed": true,
          "internalType": "address",
          "name": "to",
          "type": "address"
        }
      ],
      "name": "OwnershipTransferred",
      "type": "event"
    },
    {
      "anonymous": false,
      "inputs": [
        {
          "indexed": true,
          "internalType": "uint256",
          "name": "tokenId",
          "type": "uint256"
        },
        {
          "indexed": false,
          "internalType": "address",
          "name": "newOwner",
          "type": "address"
        }
      ],
      "name": "TokenUnlocked",
      "type": "event"
    },
    {
      "inputs": [],
      "name": "acceptOwnership",
      "outputs": [],
      "stateMutability": "nonpayable",
      "type": "function"
    },
    {
      "inputs": [
        {
          "components": [
            {
              "internalType": "bytes32",
              "name": "messageId",
              "type": "bytes32"
            },
            {
              "internalType": "uint64",
              "name": "sourceChainSelector",
              "type": "uint64"
            },
            {
              "internalType": "bytes",
              "name": "sender",
              "type": "bytes"
            },
            {
              "internalType": "bytes",
              "name": "data",
              "type": "bytes"
            },
            {
              "components": [
                {
                  "internalType": "address",
                  "name": "token",
                  "type": "address"
                },
                {
                  "internalType": "uint256",
                  "name": "amount",
                  "type": "uint256"
                }
              ],
              "internalType": "struct Client.EVMTokenAmount[]",
              "name": "destTokenAmounts",
              "type": "tuple[]"
            }
          ],
          "internalType": "struct Client.Any2EVMMessage",
          "name": "message",
          "type": "tuple"
        }
      ],
      "name": "ccipReceive",
      "outputs": [],
      "stateMutability": "nonpayable",
      "type": "function"
    },
    {
      "inputs": [],
      "name": "getLastReceivedMessageDetails",
      "outputs": [
        {
          "internalType": "bytes32",
          "name": "messageId",
          "type": "bytes32"
        },
        {
          "internalType": "string",
          "name": "text",
          "type": "string"
        }
      ],
      "stateMutability": "view",
      "type": "function"
    },
    {
      "inputs": [],
      "name": "getRouter",
      "outputs": [
        {
          "internalType": "address",
          "name": "",
          "type": "address"
        }
      ],
      "stateMutability": "view",
      "type": "function"
    },
    {
      "inputs": [
        {
          "internalType": "uint256",
          "name": "tokenId",
          "type": "uint256"
        },
        {
          "internalType": "address",
          "name": "newOwner",
          "type": "address"
        },
        {
          "internalType": "uint64",
          "name": "chainSelector",
          "type": "uint64"
        },
        {
          "internalType": "address",
          "name": "receiver",
          "type": "address"
        }
      ],
      "name": "lockAndSendNFT",
      "outputs": [
        {
          "internalType": "bytes32",
          "name": "",
          "type": "bytes32"
        }
      ],
      "stateMutability": "nonpayable",
      "type": "function"
    },
    {
      "inputs": [],
      "name": "nft",
      "outputs": [
        {
          "internalType": "contract MyToken",
          "name": "",
          "type": "address"
        }
      ],
      "stateMutability": "view",
      "type": "function"
    },
    {
      "inputs": [],
      "name": "owner",
      "outputs": [
        {
          "internalType": "address",
          "name": "",
          "type": "address"
        }
      ],
      "stateMutability": "view",
      "type": "function"
    },
    {
      "inputs": [
        {
          "internalType": "bytes4",
          "name": "interfaceId",
          "type": "bytes4"
        }
      ],
      "name": "supportsInterface",
      "outputs": [
        {
          "internalType": "bool",
          "name": "",
          "type": "bool"
        }
      ],
      "stateMutability": "pure",
      "type": "function"
    },
    {
      "inputs": [
        {
          "internalType": "address",
          "name": "to",
          "type": "address"
        }
      ],
      "name": "transferOwnership",
      "outputs": [],
      "stateMutability": "nonpayable",
      "type": "function"
    },
    {
      "inputs": [
        {
          "internalType": "address",
          "name": "_beneficiary",
          "type": "address"
        }
      ],
      "name": "withdraw",
      "outputs": [],
      "stateMutability": "nonpayable",
      "type": "function"
    },
    {
      "inputs": [
        {
          "internalType": "address",
          "name": "_beneficiary",
          "type": "address"
        },
        {
          "internalType": "address",
          "name": "_token",
          "type": "address"
        }
      ],
      "name": "withdrawToken",
      "outputs": [],
      "stateMutability": "nonpayable",
      "type": "function"
    },
    {
      "stateMutability": "payable",
      "type": "receive"
    }
  ],
  "transactionHash": "0x5c885e42657b183fa1b9753fe59fabf99c14413a4a3a1ad03e735a876ceb7df0",
  "args": [
    "0x0BF3dE8c5D3e8A2B34D2BEeB17ABfCeBaf363A59",
    "0x779877A7B0D9E8603169DdbD7836e478b4624789",
    "0x6f194Eb8bB06A1A49971b8f69e5421e30B08Adf9"
  ],
  "numDeployments": 1,
  "solcInputHash": "2ae4b049bb7b7c39565e4b83dd931aa4",
  "bytecode": "0x60a060405234801561001057600080fd5b5060405161172638038061172683398101604081905261002f916101ee565b33806000856001600160a01b038116610063576040516335fdcccd60e21b8152600060048201526024015b60405180910390fd5b6001600160a01b0390811660805282166100bf5760405162461bcd60e51b815260206004820152601860248201527f43616e6e6f7420736574206f776e657220746f207a65726f0000000000000000604482015260640161005a565b600080546001600160a01b0319166001600160a01b03848116919091179091558116156100ef576100ef81610129565b5050600480546001600160a01b039485166001600160a01b0319918216179091556005805493909416921691909117909155506102319050565b336001600160a01b038216036101815760405162461bcd60e51b815260206004820152601760248201527f43616e6e6f74207472616e7366657220746f2073656c66000000000000000000604482015260640161005a565b600180546001600160a01b0319166001600160a01b0383811691821790925560008054604051929316917fed8889f560326eb138920d842192f0eb3dd22b4f139c87a2c57538e05bae12789190a350565b80516001600160a01b03811681146101e957600080fd5b919050565b60008060006060848603121561020357600080fd5b61020c846101d2565b925061021a602085016101d2565b9150610228604085016101d2565b90509250925092565b6080516114d3610253600039600081816101e0015261054601526114d36000f3fe6080604052600436106100a05760003560e01c806379ba50971161006457806379ba50971461017e57806385572ffb146101935780638da5cb5b146101b3578063b0f479a1146101d1578063e34ed57514610204578063f2fde38b1461023257600080fd5b806301ffc9a7146100ac578063263596a5146100e15780633aeac4e11461010457806347ccca021461012657806351cff8d91461015e57600080fd5b366100a757005b600080fd5b3480156100b857600080fd5b506100cc6100c7366004610e82565b610252565b60405190151581526020015b60405180910390f35b3480156100ed57600080fd5b506100f6610289565b6040516100d8929190610efc565b34801561011057600080fd5b5061012461011f366004610f32565b610326565b005b34801561013257600080fd5b50600554610146906001600160a01b031681565b6040516001600160a01b0390911681526020016100d8565b34801561016a57600080fd5b50610124610179366004610f6b565b6103d5565b34801561018a57600080fd5b50610124610491565b34801561019f57600080fd5b506101246101ae366004610f88565b61053b565b3480156101bf57600080fd5b506000546001600160a01b0316610146565b3480156101dd57600080fd5b507f0000000000000000000000000000000000000000000000000000000000000000610146565b34801561021057600080fd5b5061022461021f366004610fe0565b61059a565b6040519081526020016100d8565b34801561023e57600080fd5b5061012461024d366004610f6b565b610655565b60006001600160e01b031982166385572ffb60e01b148061028357506001600160e01b031982166301ffc9a760e01b145b92915050565b60006060600254600380805461029e90611031565b80601f01602080910402602001604051908101604052809291908181526020018280546102ca90611031565b80156103175780601f106102ec57610100808354040283529160200191610317565b820191906000526020600020905b8154815290600101906020018083116102fa57829003601f168201915b50505050509050915091509091565b61032e610666565b6040516370a0823160e01b81523060048201526000906001600160a01b038316906370a0823190602401602060405180830381865afa158015610375573d6000803e3d6000fd5b505050506040513d601f19601f82011682018060405250810190610399919061106b565b9050806000036103bc57604051630686827b60e51b815260040160405180910390fd5b6103d06001600160a01b03831684836106bb565b505050565b6103dd610666565b47600081900361040057604051630686827b60e51b815260040160405180910390fd5b6000826001600160a01b03168260405160006040518083038185875af1925050503d806000811461044d576040519150601f19603f3d011682016040523d82523d6000602084013e610452565b606091505b50509050806103d057604051639d11f56360e01b81523360048201526001600160a01b0384166024820152604481018390526064015b60405180910390fd5b6001546001600160a01b031633146104e45760405162461bcd60e51b815260206004820152601660248201527526bab9ba10313290383937b837b9b2b21037bbb732b960511b6044820152606401610488565b60008054336001600160a01b0319808316821784556001805490911690556040516001600160a01b0390921692909183917f8be0079c531659141344cd1fd0a4f28419497f9722a3daafe3b4186f6b6457e091a350565b336001600160a01b037f00000000000000000000000000000000000000000000000000000000000000001614610586576040516335fdcccd60e21b8152336004820152602401610488565b61059761059282611239565b61070d565b50565b6005546040516323b872dd60e01b8152336004820152306024820152604481018690526000916001600160a01b0316906323b872dd90606401600060405180830381600087803b1580156105ed57600080fd5b505af1158015610601573d6000803e3d6000fd5b505050506000858560405160200161062c9291909182526001600160a01b0316602082015260400190565b6040516020818303038152906040529050600061064a8585846107e4565b979650505050505050565b61065d610666565b61059781610b35565b6000546001600160a01b031633146106b95760405162461bcd60e51b815260206004820152601660248201527527b7363c9031b0b63630b1363290313c9037bbb732b960511b6044820152606401610488565b565b604080516001600160a01b038416602482015260448082018490528251808303909101815260649091019091526020810180516001600160e01b031663a9059cbb60e01b1790526103d0908490610bde565b6000816060015180602001905181019061072791906112f2565b805160208201516005546040516323b872dd60e01b81523060048201526001600160a01b03808416602483015260448201859052949550929391929116906323b872dd90606401600060405180830381600087803b15801561078857600080fd5b505af115801561079c573d6000803e3d6000fd5b50506040516001600160a01b03841681528492507f0fe7d9801197f79ef3b1595d19379eb58f0fff5f98b0f6d6f34c03cae5306c37915060200160405180910390a250505050565b600454600090819061080290859085906001600160a01b0316610c41565b90506000306001600160a01b031663b0f479a16040518163ffffffff1660e01b8152600401602060405180830381865afa158015610844573d6000803e3d6000fd5b505050506040513d601f19601f82011682018060405250810190610868919061132c565b90506000816001600160a01b03166320487ded88856040518363ffffffff1660e01b815260040161089a929190611349565b602060405180830381865afa1580156108b7573d6000803e3d6000fd5b505050506040513d601f19601f820116820180604052508101906108db919061106b565b600480546040516370a0823160e01b815230928101929092529192506001600160a01b03909116906370a0823190602401602060405180830381865afa158015610929573d6000803e3d6000fd5b505050506040513d601f19601f8201168201806040525081019061094d919061106b565b8111156109e557600480546040516370a0823160e01b815230928101929092526001600160a01b0316906370a0823190602401602060405180830381865afa15801561099d573d6000803e3d6000fd5b505050506040513d601f19601f820116820180604052508101906109c1919061106b565b604051634787a10360e11b8152600481019190915260248101829052604401610488565b6004805460405163095ea7b360e01b81526001600160a01b03858116938201939093526024810184905291169063095ea7b3906044016020604051808303816000875af1158015610a3a573d6000803e3d6000fd5b505050506040513d601f19601f82011682018060405250810190610a5e919061141f565b506040516396f4e9f960e01b81526001600160a01b038316906396f4e9f990610a8d908a908790600401611349565b6020604051808303816000875af1158015610aac573d6000803e3d6000fd5b505050506040513d601f19601f82011682018060405250810190610ad0919061106b565b60045460405191955067ffffffffffffffff89169186917f3d8a9f055772202d2c3c1fddbad930d3dbe588d8692b75b84cee07194628291191610b22918b918b916001600160a01b0316908890611441565b60405180910390a35050505b9392505050565b336001600160a01b03821603610b8d5760405162461bcd60e51b815260206004820152601760248201527f43616e6e6f74207472616e7366657220746f2073656c660000000000000000006044820152606401610488565b600180546001600160a01b0319166001600160a01b0383811691821790925560008054604051929316917fed8889f560326eb138920d842192f0eb3dd22b4f139c87a2c57538e05bae12789190a350565b6000610bf36001600160a01b03841683610d7b565b90508051600014158015610c18575080806020019051810190610c16919061141f565b155b156103d057604051635274afe760e01b81526001600160a01b0384166004820152602401610488565b610c7c6040518060a0016040528060608152602001606081526020016060815260200160006001600160a01b03168152602001606081525090565b6040805160a081019091526001600160a01b03851660c08201528060e0810160408051808303601f190181529181529082526020808301879052815160008082529181018352929091019190610cf4565b6040805180820190915260008082526020820152815260200190600190039081610ccd5790505b508152602001836001600160a01b03168152602001610d71604051806040016040528062030d408152602001600115158152506040805182516024820152602092830151151560448083019190915282518083039091018152606490910190915290810180516001600160e01b0316630181dcf160e41b17905290565b9052949350505050565b6060610b2e8383600084600080856001600160a01b03168486604051610da19190611481565b60006040518083038185875af1925050503d8060008114610dde576040519150601f19603f3d011682016040523d82523d6000602084013e610de3565b606091505b5091509150610df3868383610dfd565b9695505050505050565b606082610e1257610e0d82610e59565b610b2e565b8151158015610e2957506001600160a01b0384163b155b15610e5257604051639996b31560e01b81526001600160a01b0385166004820152602401610488565b5080610b2e565b805115610e695780518082602001fd5b604051630a12f52160e11b815260040160405180910390fd5b600060208284031215610e9457600080fd5b81356001600160e01b031981168114610b2e57600080fd5b60005b83811015610ec7578181015183820152602001610eaf565b50506000910152565b60008151808452610ee8816020860160208601610eac565b601f01601f19169290920160200192915050565b828152604060208201526000610f156040830184610ed0565b949350505050565b6001600160a01b038116811461059757600080fd5b60008060408385031215610f4557600080fd5b8235610f5081610f1d565b91506020830135610f6081610f1d565b809150509250929050565b600060208284031215610f7d57600080fd5b8135610b2e81610f1d565b600060208284031215610f9a57600080fd5b813567ffffffffffffffff811115610fb157600080fd5b820160a08185031215610b2e57600080fd5b803567ffffffffffffffff81168114610fdb57600080fd5b919050565b60008060008060808587031215610ff657600080fd5b84359350602085013561100881610f1d565b925061101660408601610fc3565b9150606085013561102681610f1d565b939692955090935050565b600181811c9082168061104557607f821691505b60208210810361106557634e487b7160e01b600052602260045260246000fd5b50919050565b60006020828403121561107d57600080fd5b5051919050565b634e487b7160e01b600052604160045260246000fd5b6040805190810167ffffffffffffffff811182821017156110bd576110bd611084565b60405290565b60405160a0810167ffffffffffffffff811182821017156110bd576110bd611084565b604051601f8201601f1916810167ffffffffffffffff8111828210171561110f5761110f611084565b604052919050565b600082601f83011261112857600080fd5b813567ffffffffffffffff81111561114257611142611084565b611155601f8201601f19166020016110e6565b81815284602083860101111561116a57600080fd5b816020850160208301376000918101602001919091529392505050565b600082601f83011261119857600080fd5b813567ffffffffffffffff8111156111b2576111b2611084565b6111c160208260051b016110e6565b8082825260208201915060208360061b8601019250858311156111e357600080fd5b602085015b8381101561122f576040818803121561120057600080fd5b61120861109a565b813561121381610f1d565b81526020828101358183015290845292909201916040016111e8565b5095945050505050565b600060a0823603121561124b57600080fd5b6112536110c3565b8235815261126360208401610fc3565b6020820152604083013567ffffffffffffffff81111561128257600080fd5b61128e36828601611117565b604083015250606083013567ffffffffffffffff8111156112ae57600080fd5b6112ba36828601611117565b606083015250608083013567ffffffffffffffff8111156112da57600080fd5b6112e636828601611187565b60808301525092915050565b6000604082840312801561130557600080fd5b5061130e61109a565b82518152602083015161132081610f1d565b60208201529392505050565b60006020828403121561133e57600080fd5b8151610b2e81610f1d565b67ffffffffffffffff83168152604060208201526000825160a0604084015261137560e0840182610ed0565b90506020840151603f198483030160608501526113928282610ed0565b6040860151858203603f19016080870152805180835260209182019450600093509101905b808310156113ee57835180516001600160a01b031683526020908101518184015290930192600192909201916040909101906113b7565b5060608601516001600160a01b031660a08601526080860151858203603f190160c0870152925061064a8184610ed0565b60006020828403121561143157600080fd5b81518015158114610b2e57600080fd5b6001600160a01b038516815260806020820181905260009061146590830186610ed0565b6001600160a01b03949094166040830152506060015292915050565b60008251611493818460208701610eac565b919091019291505056fea2646970667358221220372dcf50878f9bb0c7606227fc463ab8674d6ea405d7deaeab2afa8fec60c8df64736f6c634300081c0033",
  "devdoc": {
    "errors": {
      "AddressEmptyCode(address)": [
        {
          "details": "There's no code at `target` (it is not a contract)."
        }
      ],
      "AddressInsufficientBalance(address)": [
        {
          "details": "The ETH balance of the account is not enough to perform the operation."
        }
      ],
      "FailedInnerCall()": [
        {
          "details": "A call to an address target failed. The target may have reverted."
        }
      ],
      "SafeERC20FailedOperation(address)": [
        {
          "details": "An operation with an ERC20 token failed."
        }
      ]
    },
    "kind": "dev",
    "methods": {
      "ccipReceive((bytes32,uint64,bytes,bytes,(address,uint256)[]))": {
        "details": "Note ensure you check the msg.sender is the OffRampRouter.",
        "params": {
          "message": "CCIP Message."
        }
      },
      "constructor": {
        "params": {
          "_link": "The address of the link contract.",
          "_router": "The address of the router contract."
        }
      },
      "getLastReceivedMessageDetails()": {
        "returns": {
          "messageId": "The ID of the last received message.",
          "text": "The last received text."
        }
      },
      "getRouter()": {
        "returns": {
          "_0": "CCIP router address"
        }
      },
      "supportsInterface(bytes4)": {
        "details": "Should indicate whether the contract implements IAny2EVMMessageReceiver. e.g. return interfaceId == type(IAny2EVMMessageReceiver).interfaceId || interfaceId == type(IERC165).interfaceId This allows CCIP to check if ccipReceive is available before calling it. - If this returns false or reverts, only tokens are transferred to the receiver. - If this returns true, tokens are transferred and ccipReceive is called atomically. Additionally, if the receiver address does not have code associated with it at the time of execution (EXTCODESIZE returns 0), only tokens will be transferred.",
        "params": {
          "interfaceId": "The interfaceId to check."
        },
        "returns": {
          "_0": "true if the interfaceId is supported."
        }
      },
      "withdraw(address)": {
        "details": "This function reverts if there are no funds to withdraw or if the transfer fails. It should only be callable by the owner of the contract.",
        "params": {
          "_beneficiary": "The address to which the Ether should be sent."
        }
      },
      "withdrawToken(address,address)": {
        "details": "This function reverts with a 'NothingToWithdraw' error if there are no tokens to withdraw.",
        "params": {
          "_beneficiary": "The address to which the tokens will be sent.",
          "_token": "The contract address of the ERC20 token to be withdrawn."
        }
      }
    },
    "title": "- A simple messenger contract for sending/receiving string data across chains.",
    "version": 1
  },
  "userdoc": {
    "kind": "user",
    "methods": {
      "acceptOwnership()": {
        "notice": "Allows an ownership transfer to be completed by the recipient."
      },
      "ccipReceive((bytes32,uint64,bytes,bytes,(address,uint256)[]))": {
        "notice": "Called by the Router to deliver a message. If this reverts, any token transfers also revert. The message will move to a FAILED state and become available for manual execution."
      },
      "constructor": {
        "notice": "Constructor initializes the contract with the router address."
      },
      "getLastReceivedMessageDetails()": {
        "notice": "Fetches the details of the last received message."
      },
      "getRouter()": {
        "notice": "Return the current router"
      },
      "owner()": {
        "notice": "Get the current owner"
      },
      "supportsInterface(bytes4)": {
        "notice": "IERC165 supports an interfaceId."
      },
      "transferOwnership(address)": {
        "notice": "Allows an owner to begin transferring ownership to a new address."
      },
      "withdraw(address)": {
        "notice": "Allows the contract owner to withdraw the entire balance of Ether from the contract."
      },
      "withdrawToken(address,address)": {
        "notice": "Allows the owner of the contract to withdraw all tokens of a specific ERC20 token."
      }
    },
    "version": 1
  },
  "storageLayout": {
    "storage": [
      {
        "astId": 407,
        "contract": "contracts/NFTPoolLockAndRelease.sol:NFTPoolLockAndRelease",
        "label": "s_owner",
        "offset": 0,
        "slot": "0",
        "type": "t_address"
      },
      {
        "astId": 409,
        "contract": "contracts/NFTPoolLockAndRelease.sol:NFTPoolLockAndRelease",
        "label": "s_pendingOwner",
        "offset": 0,
        "slot": "1",
        "type": "t_address"
      },
      {
        "astId": 5465,
        "contract": "contracts/NFTPoolLockAndRelease.sol:NFTPoolLockAndRelease",
        "label": "s_lastReceivedMessageId",
        "offset": 0,
        "slot": "2",
        "type": "t_bytes32"
      },
      {
        "astId": 5467,
        "contract": "contracts/NFTPoolLockAndRelease.sol:NFTPoolLockAndRelease",
        "label": "s_lastReceivedText",
        "offset": 0,
        "slot": "3",
        "type": "t_string_storage"
      },
      {
        "astId": 5470,
        "contract": "contracts/NFTPoolLockAndRelease.sol:NFTPoolLockAndRelease",
        "label": "s_linkToken",
        "offset": 0,
        "slot": "4",
        "type": "t_contract(IERC20)988"
      },
      {
        "astId": 5473,
        "contract": "contracts/NFTPoolLockAndRelease.sol:NFTPoolLockAndRelease",
        "label": "nft",
        "offset": 0,
        "slot": "5",
        "type": "t_contract(MyToken)4946"
      }
    ],
    "types": {
      "t_address": {
        "encoding": "inplace",
        "label": "address",
        "numberOfBytes": "20"
      },
      "t_bytes32": {
        "encoding": "inplace",
        "label": "bytes32",
        "numberOfBytes": "32"
      },
      "t_contract(IERC20)988": {
        "encoding": "inplace",
        "label": "contract IERC20",
        "numberOfBytes": "20"
      },
      "t_contract(MyToken)4946": {
        "encoding": "inplace",
        "label": "contract MyToken",
        "numberOfBytes": "20"
      },
      "t_string_storage": {
        "encoding": "bytes",
        "label": "string",
        "numberOfBytes": "32"
      }
    }
  }
}